:020000040000fa
:10000000f07f00201b040000d3050000d305000092
:1000100000000000000000000000000000000000e0
:10002000000000000000000000000000d3050000f8
:100030000000000000000000d3050000d305000010
:10004000d3050000d3050000d3050000d305000050
:10005000d3050000d3050000d3050000d305000040
:10006000d3050000d3050000d3050000d305000030
:10007000d3050000d3050000d3050000d305000020
:10008000d3050000d3050000d3050000d305000010
:10009000d3050000d3050000d3050000d305000000
:1000a000d3050000d3050000d3050000d3050000f0
:1000b000d3050000d3050000d3050000d3050000e0
:1000c000d3050000d3050000d3050000d3050000d0
:1000d000d3050000d3050000d3050000d3050000c0
:1000e000d3050000d3050000d3050000d3050000b0
:1000f000d3050000d3050000d3050000d3050000a0
:10010000d3050000d3050000d3050000d30500008f
:10011000d3050000d3050000d3050000d30500007f
:10012000d3050000d3050000d3050000d30500006f
:10013000d3050000d3050000d3050000d30500005f
:10014000d3050000d3050000d3050000d30500004f
:0c015000d3050000d3050000d30500001b
:020000040000fa
:10015c00f8b5c046f8bc08bc9e467047690500005f
:10016c00f8b5c046f8bc08bc9e4670474505000073
:020000040000fa
:10017c0080b500af40f20043c4f2000300221a81a4
:10018c0040f20043c4f200039b79dab240f2004320
:10019c00c4f2000301210a43d2b29a7140f2004327
:1001ac00c4f200039b78dbb21a0003231340022b2a
:1001bc0011d040f20043c4f2000302229a70c046f0
:1001cc0040f20043c4f200039b79dbb21a00012316
:1001dc001340002bf4d0c046bd4680bd80b500afa7
:1001ec0041f20003c4f2000302221a76c046bd4657
:1001fc0080bd80b500af41f20043c4f20003002281
:10020c001a74c046bd4680bd80b582b000af41f2c5
:10021c000003c4f2000300221a86c04641f2000318
:10022c00c4f200031a6980235b041a4080235b0428
:10023c009a42f3d146f22003c0f280031b685b0e96
:10024c00dab2fb1d3f210a401a70fb1d1b789b0282
:10025c001b041a0c41f20003c4f2000340f200210b
:10026c000a435a63c04641f20003c4f200031a6900
:10027c0080235b041a4080235b049a42f3d141f241
:10028c000003c4f2000302221a86c04641f20003a6
:10029c00c4f200031a6980235b041a4080235b04b8
:1002ac009a42f3d1c046bd4602b080bd80b500afc6
:1002bc0041f60043c4f2000340f20712c0f20102ff
:1002cc001a62c04641f60043c4f200035b68042284
:1002dc001340042bf6d0c046bd4680bd80b500afa0
:1002ec00fff746ff45f20003c4f2001304225a60e4
:1002fc00fff774fffff77dff41f60003c4f2000324
:10030c0002221a62fff780fffff7d0ff41f600438d
:10031c00c4f20003c42240219950c04641f6004368
:10032c00c4f20003c4229b5840221340402bf5d149
:10033c0041f60043c4f20003c82240219950c04644
:10034c0041f60043c4f20003c8229b5840221340dc
:10035c00402bf5d141f60043c4f20003cc224021de
:10036c009950c04641f60043c4f20003cc229b587e
:10037c0040221340402bf5d141f60043c4f2000358
:10038c00d02240219950c04641f60043c4f20003ec
:10039c00d0229b5840221340402bf5d141f600430c
:1003ac00c4f20003d42240219950c04641f60043c8
:1003bc00c4f20003d4229b5840221340402bf5d1a9
:1003cc0041f60043c4f20003d82240219950c046a4
:1003dc0041f60043c4f20003d8229b58402213403c
:1003ec00402bf5d141f60043c4f20003e422402136
:1003fc009950c04641f60043c4f20003e4229b58d6
:0e040c0040221340402bf5d1c046bd4680bdb6
:020000040000fa
:10041a0040f20003c0f2000323b140f20003c0f22d
:10042a000003984740f20003c0f2000323b140f2f0
:10043a000003c0f20003984700f09ff840f200035f
:10044a00c0f200037f2293434ef60052cef200021e
:10045a00936040f29943c0f20003984740f20003c8
:10046a00c0f2000323b140f20003c0f20003984730
:10047a0040f20003c0f2000323b140f20003c0f2cd
:0e048a00000398470021002000f0b2f8fee7c2
:020000040000fa
:1004980000230e4a10b513600d4a0e4c13600e4a25
:1004a80013600e4a13600e4a13600e4a53621361ba
:1004b8000133936000f0a4f800f0a2f80a4b9c42c4
:1004c80000d310bd08cc9847f8e7c046700000205c
:1004d8000c00002068010000080000200000002037
:0c04e80004000020100000206c01000047
:020000040000fa
:1004f400740000200400000001000000000000005f
:100504005000002020000000000000000000002037
:1005140050000000000000007000002004000000f3
:10052400000000007800002004000000010000002a
:10053400000000000000000000000000666666661f
:020000040000fa
:1005440010b5054c227832b9044b13b1044800e0cd
:1005540000bf0123237010bd5000002000000000e4
:1005640000000000034b10b51bb10349034800e031
:1005740000bf10bd00000000540000200000000077
:020000040000fa
:1005840010b50948016811b9436803b910bd0400e6
:100594008368064a9bb20c349b009b584268200037
:1005a400984780002018ede7f4040000d40500000b
:020000040000fa
:1005b400002310b5934206d103201840421e9041f7
:0e05c4009b08c01810bdc45ccc540133f2e794
:020000040000fa
:0205d200fee742
:020000040000fa
:1005d400e9050000b5050000050600000506000059
:0405e4000506000008
:020000040000fa
:1005e8008a18914201d10020704700230b70013115
:0205f800f7e723
:020000040000fa
:0a05fa0080b500affff773fefee7c7
:020000040000fa
:04060400002070471b
:020000040000fa
:02060800704739
:00000001FF
