:020000040000fa
:10000000f87f0020b30d0000cf0f0000cf0f0000dd
:1000100000000000000000000000000000000000e0
:10002000000000000000000000000000cf0f0000f2
:100030000000000000000000cf0f0000cf0f000004
:10004000cf0f0000cf0f0000cf0f0000cf0f000038
:10005000cf0f0000cf0f0000cf0f0000cf0f000028
:10006000cf0f0000cf0f0000cf0f0000cf0f000018
:10007000cf0f0000cf0f0000cf0f0000cf0f000008
:10008000cf0f0000cf0f0000cf0f0000cf0f0000f8
:10009000cf0f0000cf0f0000cf0f0000cf0f0000e8
:1000a000cf0f0000cf0f0000cf0f0000cf0f0000d8
:1000b000cf0f0000cf0f0000cf0f0000cf0f0000c8
:1000c000cf0f0000cf0f0000cf0f0000cf0f0000b8
:1000d000cf0f0000cf0f0000cf0f0000cf0f0000a8
:1000e000cf0f0000cf0f0000cf0f0000cf0f000098
:1000f000cf0f0000cf0f0000cf0f0000cf0f000088
:10010000cf0f0000cf0f0000cf0f0000cf0f000077
:10011000cf0f0000cf0f0000cf0f0000cf0f000067
:10012000cf0f0000cf0f0000d7050000250600000c
:10013000cf0f0000cf0f0000cf0f0000cf0f000047
:10014000cf0f0000cf0f0000cf0f0000cf0f000037
:0c015000cf0f0000cf0f0000cf0f000009
:020000040000fa
:10015c00f8b5c046f8bc08bc9e467047010f0000bd
:10016c00f8b5c046f8bc08bc9e467047dd0e0000d2
:020000040000fa
:10017c0080b582b000af0200fb1d1a70fb1d1b780e
:10018c007f2b12d8fb1d1b781a001f231a4011005d
:10019c004ef20013cef20003fa1d127852b252093d
:1001ac000120884001009200d150c046bd4602b0eb
:1001bc0080bd90b583b000af02003960fb1d1a7092
:1001cc00fb1d1b787f2b2fd84ef20013cef20003b1
:1001dc00fa1d127852b29208c0329200d358fa1d0e
:1001ec001278110003220a40d200ff2191400a002c
:1001fc00d2431a4010003b689b01ff221a40fb1da2
:10020c001b78190003230b40db009a4011004ef2bf
:10021c000013cef20003fa1d127852b29208014379
:10022c00c0329200d15037e04ef60053cef20003ac
:10023c00fa1d127811000f220a40083a9208063271
:10024c0092009b1804331b68fa1d127811000322cc
:10025c000a40d200ff2191400a00d2431a401000fc
:10026c003b689b01ff221a40fb1d1b7819000323de
:10027c000b40db009a404ef60053cef20003f91d02
:10028c0009780c000f2121400839890802430631f6
:10029c0089005b1804331a60c046bd4603b090bd9c
:1002ac0090b583b000af0200bb1d1a8040f26c0306
:1002bc00c2f2000301221a7042f60003c4f20023ba
:1002cc001a6842f60003c4f2002302218a431a6022
:1002dc00c04642f60003c4f200239b68022213407e
:1002ec00022bf6d0bb1d1b88180000f04ffe00221d
:1002fc0047f20003c4f2470300f0acfc03000c000f
:10030c001a00230042f60004c4f200241000190065
:10031c0000f016fe03002364c04642f60003c4f24c
:10032c0000239b68002bf8d142f60003c4f2002393
:10033c001a6842f60003c4f2002302210a431a6031
:10034c00c04642f60003c4f200239b68022213400d
:10035c00022bf6d0c04640f26c03c2f200031b78ad
:10036c00dbb2002bf7d1c046bd4603b090bd90b5b3
:10037c0083b000af02003960bb1d1a8040f28403c9
:10038c00c2f200033a681a6040f28003c2f2000322
:10039c0001221a7042f60043c4f200231a6842f696
:1003ac000043c4f2002302218a431a60c04642f67d
:1003bc000043c4f200239b6802221340022bf6d0a8
:1003cc00bb1d1b88180000f0e1fd002247f2000362
:1003dc00c4f2470300f03efc03000c001a0023009b
:1003ec0042f60044c4f200241000190000f0a8fded
:1003fc0003002364c04642f60043c4f200239b680a
:10040c00002bf8d142f60043c4f2002301229a6279
:10041c0042f60043c4f200231a6842f60043c4f2c9
:10042c00002302210a431a60c04642f60043c4f27c
:10043c0000239b6802221340022bf6d0c046bd4617
:10044c0003b090bd80b500af42f60043c4f2002368
:10045c001a6842f60043c4f2002302218a431a6050
:10046c00c04642f60043c4f200239b6802221340ac
:10047c00022bf6d040f28403c2f2000300221a6071
:10048c0040f28003c2f2000300221a70c046bd463f
:10049c0080bd80b500af00f082f842f60003c4f2d4
:1004ac00002301221a60c04642f60003c4f2002366
:1004bc009b6801221340012bf6d042f60003c4f2d4
:1004cc00002340f200721a6042f60003c4f20023cb
:1004dc000022da6342f60003c4f2002304225a71ac
:1004ec0042f60003c4f200234ff60f42c0f20f0293
:1004fc00da6242f60003c4f2002301229a62c0467b
:10050c0042f60003c4f200239b68002bf8d1c046ce
:10051c00bd4680bd80b500af42f60043c4f2002357
:10052c0001221a60c04642f60043c4f200239b68c5
:10053c0001221340012bf6d042f60043c4f20023f3
:10054c0040f200721a6042f60043c4f2002300220b
:10055c00da6342f60043c4f2002304225a7142f6d5
:10056c000043c4f200234ff60f42c0f20f02da62ce
:10057c0042f60043c4f2002301229a62c04642f6be
:10058c000043c4f200239b68002bf8d140f2800397
:10059c00c2f2000300221a70c046bd4680bd80b571
:1005ac0000afbff35f8f62b603213a20fff701fe65
:1005bc003a20fff7ddfd03213b20fff7fafd3b203e
:1005cc00fff7d6fdc046bd4680bd80b582b000affa
:1005dc0040f27003c2f200035b687b6042f60003da
:1005ec00c4f20023db6a3b6042f60003c4f2002332
:1005fc004ff60f42c0f20f02da6242f60003c4f269
:10060c000023db6a40f26c03c2f2000300221a7072
:10061c00c046bd4602b080bd80b582b000af40f28e
:10062c007803c2f200035b687b6042f60043c4f2bd
:10063c000023db6a3b6042f60043c4f200234ff612
:10064c000f42c0f20f02da6242f60043c4f20023fa
:10065c00db6a40f28403c2f200031b682bb140f248
:10066c008403c2f200031b68984740f28003c2f275
:0e067c00000300221a70c046bd4602b080bdc9
:020000040000fa
:10068a0080b582b002af00f033fafff703ff00f043
:10069a0020f900f053f90f20fff703fe012300931e
:1006aa00012300220021002000f08ff80520fff727
:1006ba00f8fd01230093012300220021002000f00d
:1006ca0084f80520fff7edfd0123009301230022a2
:1006da000021002000f079f8002300930123002272
:1006ea000021002000f071f800230093012300226a
:1006fa000021002000f069f8002300930023012262
:10070a000121002000f061f8002300930023002259
:10071a000021002000f059f8002300930023002252
:10072a000121002000f051f8002300930023002249
:10073a000021002000f049f8012300930023002241
:10074a000021002000f041f800230093002300223a
:10075a000021002000f039f8002300930123012230
:10076a000021002000f031f800230093002300222a
:10077a000021002000f029f801230093012301221f
:10078a000121002000f021f800f0e4f800f0eef872
:10079a0040f2e830fff785fd01230093012301228f
:1007aa000021012000f011f8002300930023012208
:1007ba000021012000f009f8002300930023012200
:1007ca000121012000f001f8e0e7b0b582b000afe6
:1007da0005000c0010001900fb1d2a1c1a70bb1d15
:1007ea00221c1a707b1d021c1a703b1d0a1c1a70ef
:1007fa0043f20023c4f2000301229a61fb1d1b7815
:10080a0033b143f20023c4f2000302229a6105e0e5
:10081a0043f20023c4f2000302225a611823fb1890
:10082a001b783bb143f20023c4f200038022d203b7
:10083a009a6106e043f20023c4f200038022d20345
:10084a005a613b1d1b783bb143f20023c4f20003fb
:10085a00802292039a6106e043f20023c4f2000365
:10086a00802292035a617b1d1b783bb143f200231d
:10087a00c4f20003802212049a6106e043f20023c4
:10088a00c4f20003802212045a61bb1d1b7843b1d3
:10089a0043f20023c4f2000398218022d2035a5063
:1008aa0007e043f20023c4f2000394218022d2031a
:1008ba005a500120fff7f5fc43f20023c4f200036b
:1008ca0001225a610120fff7ecfcc046bd4602b086
:1008da00b0bd80b500af43f20023c4f20003012289
:1008ea009a6043f20023c4f2000302229a6043f2a0
:1008fa000023c4f200038022d2039a6043f2002349
:10090a00c4f20003802292039a6043f20023c4f2e5
:10091a000003802212049a6043f20023c4f2000307
:10092a0088218022d2035a5043f20023c4f20003e2
:10093a0048f200029a60c046bd4680bd80b500af4d
:10094a0043f20023c4f2000348f200029a61c0464f
:10095a00bd4680bd80b500af43f20023c4f2000358
:10096a0048f200025a61c046bd4680bd80b500af5c
:10097a0043f20023c4f2000348f20002da61c046df
:04098a00bd4680bd29
:020000040000fa
:10098e0080b500af40f20043c4f2000300221a818a
:10099e0040f20043c4f200039b79dab240f2004306
:1009ae00c4f2000301210a43d2b29a7140f200430d
:1009be00c4f200039b78dbb21a0003231340022b10
:1009ce0011d040f20043c4f2000302229a70c046d6
:1009de0040f20043c4f200039b79dbb21a000123fc
:1009ee001340002bf4d0c046bd4680bd80b500af8d
:1009fe0041f20003c4f2000302221a76c046bd463d
:100a0e0080bd80b500af41f20043c4f20003002266
:100a1e001a74c046bd4680bd80b582b000af41f2ab
:100a2e000003c4f2000300221a86c04641f20003fe
:100a3e00c4f200031a6980235b041a4080235b040e
:100a4e009a42f3d146f22003c0f280031b685b0e7c
:100a5e00dab2fb1d3f210a401a70fb1d1b789b0268
:100a6e001b041a0c41f20003c4f2000340f20021f1
:100a7e000a435a63c04641f20003c4f200031a69e6
:100a8e0080235b041a4080235b049a42f3d141f227
:100a9e000003c4f2000302221a86c04641f200038c
:100aae00c4f200031a6980235b041a4080235b049e
:100abe009a42f3d1c046bd4602b080bd80b500afac
:100ace0041f60043c4f2000340f20712c0f20102e5
:100ade001a62c04641f60043c4f200035b6804226a
:100aee001340042bf6d0c046bd4680bd80b500af86
:100afe00fff746ff45f20003c4f2001304225a60ca
:100b0e00fff774fffff77dff41f60003c4f2000309
:100b1e0002221a62fff780fffff7d0ff41f6004373
:100b2e00c4f20003c42240219950c04641f600434e
:100b3e00c4f20003c4229b5840221340402bf5d12f
:100b4e0041f60043c4f20003c82240219950c0462a
:100b5e0041f60043c4f20003c8229b5840221340c2
:100b6e00402bf5d141f60043c4f20003cc224021c4
:100b7e009950c04641f60043c4f20003cc229b5864
:100b8e0040221340402bf5d141f60043c4f200033e
:100b9e00d02240219950c04641f60043c4f20003d2
:100bae00d0229b5840221340402bf5d141f60043f2
:100bbe00c4f20003d42240219950c04641f60043ae
:100bce00c4f20003d4229b5840221340402bf5d18f
:100bde0041f60043c4f20003d82240219950c0468a
:100bee0041f60043c4f20003d8229b584022134022
:100bfe00402bf5d141f60043c4f20003e42240211c
:100c0e009950c04641f60043c4f20003e4229b58bb
:0e0c1e0040221340402bf5d1c046bd4680bd9c
:020000040000fa
:100c2c0006d128b9f54203d800d30ab96d0d09d104
:100c3c000020c143090dc904f0bdf9d11242f7d10e
:100c4c00640df5d00020c14349054908a6e00020f9
:100c5c006146f0bdf0b50127ff070e005e403e4037
:100c6c00b446be0a4c18dd18f442d9d2f542e4d28f
:100c7c00640decd06d0dead06419c9023943460df0
:100c8c00c0023143db023b43db0a10b48e4685b213
:100c9c0097b26f43140c6c433e0ca419260c24041d
:100cac00bfb227439cb26c43a419190c6943250ca1
:100cbc00a4b249190d04090c6419000c95b24543f2
:100ccc003e0c76193743bfb2360c150c4543ad19a3
:100cdc00a6b2240cad192e0437432e0c36199db236
:100cec004543ad19acb22e0c89191d0c45436d183a
:100cfc002e04290c3443704680b295b245433e0c09
:100d0c0076193743bfb2360c150c4543ad19a6b254
:100d1c00ad19240c2e0437432e0c36199db24543c5
:100d2c00ad19acb22e0c89191d0c45436d182e044f
:100d3c003443290c75462d0c90b268433e0c801937
:100d4c000604bfb23e43070ca0b23f18120c6a4314
:100d5c00d019020c80b2240ca4189ab26a4312194e
:100d6c0014042043120c89181b0c6b43c91810bcbb
:100d7c0001273d05294203d1b61940414941013ca7
:100d8c00ff077d0d013d641b0bdb6d00ac4209dae6
:100d9c00240500254208be41684161416646314345
:060dac00f0bd54e74ee724
:020000040000fa
:100db20040f20003c0f2000323b140f20003c0f28c
:100dc2000003984740f20003c0f2000323b140f24f
:100dd2000003c0f20003984700f09ff840f20003be
:100de200c0f200037f2293434ef60052cef200027d
:100df200936040f63163c0f20003984740f200036b
:100e0200c0f2000323b140f20003c0f2000398478e
:100e120040f20003c0f2000323b140f20003c0f22b
:0e0e22000003984700210020fff72efcfee79a
:020000040000fa
:100e300000230e4a10b513600d4a0e4c13600e4a83
:100e400013600e4a13600e4a13600e4a5362136118
:100e50000133936000f0d1f800f0cff80a4b9c42c8
:100e600000d310bd08cc9847f8e7c0468c0000209e
:100e70000c00002068010000080000200000002095
:0c0e800004000020100000206c010000a5
:020000040000fa
:100e8c0090000020040000000100000000000000a1
:100e9c00500000203c00000000000000000000207a
:100eac0050000000000000008c0000200400000036
:100ebc00000000009400002004000000010000006d
:100ecc00000000000000000000000000666666667e
:020000040000fa
:100edc0010b5054c227832b9044b13b1044800e02c
:100eec0000bf0123237010bd500000200000000043
:100efc0000000000034b10b51bb10349034800e090
:100f0c0000bf10bd000000005400002000000000d5
:020000040000fa
:100f1c0010b50948016811b9436803b910bd040044
:100f2c008368064a9bb20c349b009b584268200095
:100f3c00984780002018ede78c0e0000d00f0000c1
:020000040000fa
:100f4c004a0010d2520d03231b02ff33d21a0ad4cb
:100f5c0052421f3209d4400dc90208430123db075a
:0e0f6c001843d040704700207047d0177047e0
:020000040000fa
:100f7a00002310b5934206d103201840421e904127
:0e0f8a009b08c01810bdc45ccc540133f2e7c4
:020000040000fa
:100f980040f6b573c0f20003004206d5404200b5e2
:0c0fa800984708bc0122d20711431847eb
:020000040000fa
:100fb40040f21d42010007d002d4013a0018fcd5ca
:0a0fc4001205c30a40059918704792
:020000040000fa
:020fce00fee73c
:020000040000fa
:100fd000e50f00007b0f0000f70f0000f70f000087
:040fe000f70f000007
:020000040000fa
:100fe4008a18914201d10020704700230b7001310f
:020ff400f7e71d
:020000040000fa
:040ff6000020704720
:020000040000fa
:020ffa0070473e
:00000001FF
